{
  "address": "0xc885E982395d6c2CFC92bA7baCaAF34a3ec66E79",
  "abi": [
    {
      "inputs": [
        {
          "internalType": "address",
          "name": "_ccipRouterAddress",
          "type": "address"
        },
        {
          "internalType": "address",
          "name": "_linkTokenAddress",
          "type": "address"
        },
        {
          "internalType": "address",
          "name": "_usdcTokenAddress",
          "type": "address"
        },
        {
          "internalType": "uint64",
          "name": "_destinationChainSelector",
          "type": "uint64"
        }
      ],
      "stateMutability": "nonpayable",
      "type": "constructor"
    },
    {
      "inputs": [
        {
          "internalType": "uint256",
          "name": "currentBalance",
          "type": "uint256"
        },
        {
          "internalType": "uint256",
          "name": "calculatedFees",
          "type": "uint256"
        }
      ],
      "name": "NotEnoughBalanceForFees",
      "type": "error"
    },
    {
      "inputs": [
        {
          "internalType": "uint256",
          "name": "currentBalance",
          "type": "uint256"
        }
      ],
      "name": "NotEnoughBalanceUsdcForTransfer",
      "type": "error"
    },
    {
      "inputs": [],
      "name": "NothingToWithdraw",
      "type": "error"
    },
    {
      "anonymous": false,
      "inputs": [
        {
          "indexed": true,
          "internalType": "address",
          "name": "claimant",
          "type": "address"
        },
        {
          "indexed": false,
          "internalType": "uint256",
          "name": "amount",
          "type": "uint256"
        }
      ],
      "name": "Claimed",
      "type": "event"
    },
    {
      "anonymous": false,
      "inputs": [
        {
          "indexed": false,
          "internalType": "uint256",
          "name": "amount",
          "type": "uint256"
        }
      ],
      "name": "Deposit",
      "type": "event"
    },
    {
      "anonymous": false,
      "inputs": [
        {
          "indexed": true,
          "internalType": "address",
          "name": "newHeir",
          "type": "address"
        }
      ],
      "name": "HeirSet",
      "type": "event"
    },
    {
      "anonymous": false,
      "inputs": [
        {
          "indexed": false,
          "internalType": "bytes32",
          "name": "messageId",
          "type": "bytes32"
        },
        {
          "indexed": false,
          "internalType": "uint64",
          "name": "destinationChainSelector",
          "type": "uint64"
        },
        {
          "indexed": false,
          "internalType": "address",
          "name": "receiver",
          "type": "address"
        },
        {
          "indexed": false,
          "internalType": "uint256",
          "name": "amount",
          "type": "uint256"
        },
        {
          "indexed": false,
          "internalType": "uint256",
          "name": "ccipFee",
          "type": "uint256"
        }
      ],
      "name": "UsdcTransferred",
      "type": "event"
    },
    {
      "inputs": [],
      "name": "GRETTING",
      "outputs": [
        {
          "internalType": "string",
          "name": "",
          "type": "string"
        }
      ],
      "stateMutability": "view",
      "type": "function"
    },
    {
      "inputs": [],
      "name": "allowanceUsdc",
      "outputs": [
        {
          "internalType": "uint256",
          "name": "usdcAmount",
          "type": "uint256"
        }
      ],
      "stateMutability": "view",
      "type": "function"
    },
    {
      "inputs": [
        {
          "internalType": "address",
          "name": "account",
          "type": "address"
        }
      ],
      "name": "balancesOf",
      "outputs": [
        {
          "internalType": "uint256",
          "name": "linkBalance",
          "type": "uint256"
        },
        {
          "internalType": "uint256",
          "name": "usdcBalance",
          "type": "uint256"
        }
      ],
      "stateMutability": "view",
      "type": "function"
    },
    {
      "inputs": [],
      "name": "beneficiary",
      "outputs": [
        {
          "internalType": "address",
          "name": "",
          "type": "address"
        }
      ],
      "stateMutability": "view",
      "type": "function"
    },
    {
      "inputs": [],
      "name": "claimInvestmentReturns",
      "outputs": [],
      "stateMutability": "nonpayable",
      "type": "function"
    },
    {
      "inputs": [],
      "name": "claimLoanReturns",
      "outputs": [],
      "stateMutability": "nonpayable",
      "type": "function"
    },
    {
      "inputs": [],
      "name": "claimPoolFunds",
      "outputs": [],
      "stateMutability": "nonpayable",
      "type": "function"
    },
    {
      "inputs": [],
      "name": "claimStakingRewards",
      "outputs": [],
      "stateMutability": "nonpayable",
      "type": "function"
    },
    {
      "inputs": [
        {
          "internalType": "uint256",
          "name": "amount",
          "type": "uint256"
        }
      ],
      "name": "deposit",
      "outputs": [],
      "stateMutability": "nonpayable",
      "type": "function"
    },
    {
      "inputs": [],
      "name": "heir",
      "outputs": [
        {
          "internalType": "address",
          "name": "",
          "type": "address"
        }
      ],
      "stateMutability": "view",
      "type": "function"
    },
    {
      "inputs": [],
      "name": "invest",
      "outputs": [],
      "stateMutability": "nonpayable",
      "type": "function"
    },
    {
      "inputs": [],
      "name": "investmentBalance",
      "outputs": [
        {
          "internalType": "uint256",
          "name": "",
          "type": "uint256"
        }
      ],
      "stateMutability": "view",
      "type": "function"
    },
    {
      "inputs": [],
      "name": "lend",
      "outputs": [],
      "stateMutability": "nonpayable",
      "type": "function"
    },
    {
      "inputs": [],
      "name": "lendingBalance",
      "outputs": [
        {
          "internalType": "uint256",
          "name": "",
          "type": "uint256"
        }
      ],
      "stateMutability": "view",
      "type": "function"
    },
    {
      "inputs": [],
      "name": "owner",
      "outputs": [
        {
          "internalType": "address",
          "name": "",
          "type": "address"
        }
      ],
      "stateMutability": "view",
      "type": "function"
    },
    {
      "inputs": [],
      "name": "poolBalance",
      "outputs": [
        {
          "internalType": "uint256",
          "name": "",
          "type": "uint256"
        }
      ],
      "stateMutability": "view",
      "type": "function"
    },
    {
      "inputs": [
        {
          "internalType": "address",
          "name": "newHeir",
          "type": "address"
        }
      ],
      "name": "setHeir",
      "outputs": [],
      "stateMutability": "nonpayable",
      "type": "function"
    },
    {
      "inputs": [],
      "name": "stake",
      "outputs": [],
      "stateMutability": "nonpayable",
      "type": "function"
    },
    {
      "inputs": [],
      "name": "stakingBalance",
      "outputs": [
        {
          "internalType": "uint256",
          "name": "",
          "type": "uint256"
        }
      ],
      "stateMutability": "view",
      "type": "function"
    },
    {
      "inputs": [
        {
          "internalType": "address",
          "name": "_receiver",
          "type": "address"
        },
        {
          "internalType": "uint256",
          "name": "_amount",
          "type": "uint256"
        }
      ],
      "name": "transferUsdcToSepolia",
      "outputs": [
        {
          "internalType": "bytes32",
          "name": "messageId",
          "type": "bytes32"
        }
      ],
      "stateMutability": "nonpayable",
      "type": "function"
    },
    {
      "inputs": [
        {
          "internalType": "address",
          "name": "_beneficiary",
          "type": "address"
        },
        {
          "internalType": "address",
          "name": "_token",
          "type": "address"
        }
      ],
      "name": "withdrawToken",
      "outputs": [],
      "stateMutability": "nonpayable",
      "type": "function"
    }
  ],
  "transactionHash": "0xbacef9e3197983ab673dc2225d03e392d704be4026ec19715fc3ad5908391cd1",
  "args": [
    "0xF694E193200268f9a4868e4Aa017A0118C9a8177",
    "0x0b9d5D9136855f6FEc3c0993feE6E9CE8a297846",
    "0x5425890298aed601595a70AB815c96711a31Bc65",
    "16015286601757825753"
  ],
  "numDeployments": 1,
  "solcInputHash": "22448abf43a02280466eae9c4ec2c30c",
  "bytecode": "0x610140604052600d6101009081526c2430b1b5b0ba3437b7103bb4b760991b6101205260009062000031908262000145565b503480156200003f57600080fd5b5060405162001c8a38038062001c8a83398101604081905262000062916200022e565b600180546001600160a01b031916331790556001600160a01b0393841660805291831660a05290911660c0526001600160401b031660e05262000299565b634e487b7160e01b600052604160045260246000fd5b600181811c90821680620000cb57607f821691505b602082108103620000ec57634e487b7160e01b600052602260045260246000fd5b50919050565b601f8211156200014057600081815260208120601f850160051c810160208610156200011b5750805b601f850160051c820191505b818110156200013c5782815560010162000127565b5050505b505050565b81516001600160401b03811115620001615762000161620000a0565b6200017981620001728454620000b6565b84620000f2565b602080601f831160018114620001b15760008415620001985750858301515b600019600386901b1c1916600185901b1785556200013c565b600085815260208120601f198616915b82811015620001e257888601518255948401946001909101908401620001c1565b5085821015620002015787850151600019600388901b60f8161c191681555b5050505050600190811b01905550565b80516001600160a01b03811681146200022957600080fd5b919050565b600080600080608085870312156200024557600080fd5b620002508562000211565b9350620002606020860162000211565b9250620002706040860162000211565b60608601519092506001600160401b03811681146200028e57600080fd5b939692955090935050565b60805160a05160c05160e0516119326200035860003960008181610d430152818161120001526112760152600081816103ae015281816106930152818161081a015281816108a5015281816108df01528181610b0b01528181610bd501528181610fb501528181611044015281816110e0015261114e01526000818161060601528181610c7a01528181610dc601528181610e550152610f32015260008181610d1601528181610f030152818161111f01526111d301526119326000f3fe608060405234801561001057600080fd5b50600436106101375760003560e01c80638da5cb5b116100b8578063d4e17eb51161007c578063d4e17eb514610246578063d6e4f5061461025b578063e8b5e51f14610263578063ed3bd5bc1461026b578063f6c14be214610273578063fe2c5d361461027c57600080fd5b80638da5cb5b146101fc57806391f2ebb81461020f57806396365d441461022257806397dffc611461022b578063b6b55f251461023357600080fd5b8063415bc839116100ff578063415bc839146101a457806348c5e3f9146101bb5780634d9b4894146101c35780636392a51f146101cc5780636b69e05b146101f457600080fd5b806323defc771461013c578063249c79551461015157806338af3eed146101595780633a4b66f1146101895780633aeac4e114610191575b600080fd5b61014f61014a366004611618565b61028f565b005b61014f610338565b60025461016c906001600160a01b031681565b6040516001600160a01b0390911681526020015b60405180910390f35b61014f61040d565b61014f61019f36600461163a565b610460565b6101ad60065481565b604051908152602001610180565b61014f61057e565b6101ad60075481565b6101df6101da366004611618565b6105e2565b60408051928352602083019190915201610180565b61014f610707565b60015461016c906001600160a01b031681565b60035461016c906001600160a01b031681565b6101ad60045481565b61014f61076d565b61014f61024136600461166d565b6107bd565b61024e6109a3565b60405161018091906116d6565b61014f610a31565b61014f610a9b565b6101ad610aed565b6101ad60055481565b6101ad61028a3660046116e9565b610b83565b6001546001600160a01b031633146102ee5760405162461bcd60e51b815260206004820152601760248201527f4f6e6c79206f776e65722063616e20736574206865697200000000000000000060448201526064015b60405180910390fd5b600380546001600160a01b0319166001600160a01b0383169081179091556040517fe77c88e80e5d4447a739317d53bf3874932f2d2db47728fb4510adfd9490fabe90600090a250565b6002546001600160a01b031633148061035b57506003546001600160a01b031633145b6103985760405162461bcd60e51b815260206004820152600e60248201526d139bdd08185d5d1a1bdc9a5e995960921b60448201526064016102e5565b6004805460009091556103d56001600160a01b037f00000000000000000000000000000000000000000000000000000000000000001633836112fa565b60405181815233907fd8138f8a3f377c5259ca548e70e4c2de94f129f5a11036a15b69513cba2b426a9060200160405180910390a250565b6001546001600160a01b0316331461045e5760405162461bcd60e51b81526020600482015260146024820152734f6e6c79206f776e65722063616e207374616b6560601b60448201526064016102e5565b565b6001546001600160a01b0316331461047757600080fd5b6040516370a0823160e01b81523060048201526000906001600160a01b038316906370a0823190602401602060405180830381865afa1580156104be573d6000803e3d6000fd5b505050506040513d601f19601f820116820180604052508101906104e29190611713565b90508060000361050557604051630686827b60e51b815260040160405180910390fd5b60405163a9059cbb60e01b81526001600160a01b0384811660048301526024820183905283169063a9059cbb906044016020604051808303816000875af1158015610554573d6000803e3d6000fd5b505050506040513d601f19601f82011682018060405250810190610578919061172c565b50505050565b6001546001600160a01b0316331461045e5760405162461bcd60e51b815260206004820152602160248201527f4f6e6c79206f776e65722063616e20636c61696d206c6f616e2072657475726e6044820152607360f81b60648201526084016102e5565b6040516370a0823160e01b81526001600160a01b03828116600483015260009182917f000000000000000000000000000000000000000000000000000000000000000016906370a0823190602401602060405180830381865afa15801561064d573d6000803e3d6000fd5b505050506040513d601f19601f820116820180604052508101906106719190611713565b6040516370a0823160e01b81526001600160a01b0385811660048301529193507f0000000000000000000000000000000000000000000000000000000000000000909116906370a0823190602401602060405180830381865afa1580156106dc573d6000803e3d6000fd5b505050506040513d601f19601f820116820180604052508101906107009190611713565b9050915091565b6001546001600160a01b0316331461045e5760405162461bcd60e51b8152602060048201526024808201527f4f6e6c79206f776e65722063616e20636c61696d207374616b696e67207265776044820152636172647360e01b60648201526084016102e5565b6001546001600160a01b0316331461045e5760405162461bcd60e51b815260206004820152601360248201527213db9b1e481bdddb995c8818d85b881b195b99606a1b60448201526064016102e5565b6000811161080d5760405162461bcd60e51b815260206004820181905260248201527f416d6f756e74206d7573742062652067726561746572207468616e207a65726f60448201526064016102e5565b6108426001600160a01b037f000000000000000000000000000000000000000000000000000000000000000016333084611362565b6000606461085183600a611764565b61085b9190611781565b90506000606461086c846005611764565b6108769190611781565b905060006064610887856019611764565b6108919190611781565b6002549091506108ce906001600160a01b037f000000000000000000000000000000000000000000000000000000000000000081169116856112fa565b600154610908906001600160a01b037f000000000000000000000000000000000000000000000000000000000000000081169116846112fa565b826004600082825461091a91906117a3565b92505081905550806005600082825461093391906117a3565b92505081905550806006600082825461094c91906117a3565b92505081905550806007600082825461096591906117a3565b90915550506040518481527f4d6ce1e535dbade1c23defba91e23b8f791ce5edc0cc320257a2b364e4e384269060200160405180910390a150505050565b600080546109b0906117b6565b80601f01602080910402602001604051908101604052809291908181526020018280546109dc906117b6565b8015610a295780601f106109fe57610100808354040283529160200191610a29565b820191906000526020600020905b815481529060010190602001808311610a0c57829003601f168201915b505050505081565b6001546001600160a01b0316331461045e5760405162461bcd60e51b815260206004820152602760248201527f4f6e6c79206f776e65722063616e20636c61696d20696e766573746d656e742060448201526672657475726e7360c81b60648201526084016102e5565b6001546001600160a01b0316331461045e5760405162461bcd60e51b815260206004820152601560248201527413db9b1e481bdddb995c8818d85b881a5b9d995cdd605a1b60448201526064016102e5565b604051636eb1769f60e11b81523360048201523060248201526000907f00000000000000000000000000000000000000000000000000000000000000006001600160a01b03169063dd62ed3e90604401602060405180830381865afa158015610b5a573d6000803e3d6000fd5b505050506040513d601f19601f82011682018060405250810190610b7e9190611713565b905090565b604080516001808252818301909252600091829190816020015b6040805180820190915260008082526020820152815260200190600190039081610b9d579050509050600060405180604001604052807f00000000000000000000000000000000000000000000000000000000000000006001600160a01b031681526020018581525090508082600081518110610c1c57610c1c6117f0565b60209081029190910101526040805160a081019091526001600160a01b03861660c08201526000908060e0810160405160208183030381529060405281526020016040518060200160405280600081525081526020018481526020017f00000000000000000000000000000000000000000000000000000000000000006001600160a01b03168152602001610cf76040518060200160405280600081525060408051915160248084019190915281518084039091018152604490920190526020810180516001600160e01b03166397a657c960e01b17905290565b90526040516320487ded60e01b81529091506000906001600160a01b037f000000000000000000000000000000000000000000000000000000000000000016906320487ded90610d6d907f0000000000000000000000000000000000000000000000000000000000000000908690600401611806565b602060405180830381865afa158015610d8a573d6000803e3d6000fd5b505050506040513d601f19601f82011682018060405250810190610dae9190611713565b6040516370a0823160e01b81523060048201529091507f00000000000000000000000000000000000000000000000000000000000000006001600160a01b0316906370a0823190602401602060405180830381865afa158015610e15573d6000803e3d6000fd5b505050506040513d601f19601f82011682018060405250810190610e399190611713565b811115610eec576040516370a0823160e01b81523060048201527f00000000000000000000000000000000000000000000000000000000000000006001600160a01b0316906370a0823190602401602060405180830381865afa158015610ea4573d6000803e3d6000fd5b505050506040513d601f19601f82011682018060405250810190610ec89190611713565b6040516328fdcaa160e01b81526004810191909152602481018290526044016102e5565b60405163095ea7b360e01b81526001600160a01b037f000000000000000000000000000000000000000000000000000000000000000081166004830152602482018390527f0000000000000000000000000000000000000000000000000000000000000000169063095ea7b3906044016020604051808303816000875af1158015610f7b573d6000803e3d6000fd5b505050506040513d601f19601f82011682018060405250810190610f9f919061172c565b506040516370a0823160e01b81523360048201527f00000000000000000000000000000000000000000000000000000000000000006001600160a01b0316906370a0823190602401602060405180830381865afa158015611004573d6000803e3d6000fd5b505050506040513d601f19601f820116820180604052508101906110289190611713565b8611156110d3576040516370a0823160e01b81523360048201527f00000000000000000000000000000000000000000000000000000000000000006001600160a01b0316906370a0823190602401602060405180830381865afa158015611093573d6000803e3d6000fd5b505050506040513d601f19601f820116820180604052508101906110b79190611713565b604051636212cf3b60e01b81526004016102e591815260200190565b6111086001600160a01b037f000000000000000000000000000000000000000000000000000000000000000016333089611362565b60405163095ea7b360e01b81526001600160a01b037f000000000000000000000000000000000000000000000000000000000000000081166004830152602482018890527f0000000000000000000000000000000000000000000000000000000000000000169063095ea7b3906044016020604051808303816000875af1158015611197573d6000803e3d6000fd5b505050506040513d601f19601f820116820180604052508101906111bb919061172c565b506040516396f4e9f960e01b81526001600160a01b037f000000000000000000000000000000000000000000000000000000000000000016906396f4e9f99061122a907f0000000000000000000000000000000000000000000000000000000000000000908690600401611806565b6020604051808303816000875af1158015611249573d6000803e3d6000fd5b505050506040513d601f19601f8201168201806040525081019061126d9190611713565b604080518281527f000000000000000000000000000000000000000000000000000000000000000067ffffffffffffffff1660208201526001600160a01b038a1681830152606081018990526080810184905290519196507fb55a3d3f1ccd1c10f00aff03ad884028d98fa1d478fae03acecbf884ce8e8fbc919081900360a00190a15050505092915050565b6040516001600160a01b03831660248201526044810182905261135d90849063a9059cbb60e01b906064015b60408051601f198184030181529190526020810180516001600160e01b03166001600160e01b03199093169290921790915261139a565b505050565b6040516001600160a01b03808516602483015283166044820152606481018290526105789085906323b872dd60e01b90608401611326565b60006113ef826040518060400160405280602081526020017f5361666545524332303a206c6f772d6c6576656c2063616c6c206661696c6564815250856001600160a01b031661146c9092919063ffffffff16565b80519091501561135d578080602001905181019061140d919061172c565b61135d5760405162461bcd60e51b815260206004820152602a60248201527f5361666545524332303a204552433230206f7065726174696f6e20646964206e6044820152691bdd081cdd58d8d9595960b21b60648201526084016102e5565b606061147b8484600085611483565b949350505050565b6060824710156114e45760405162461bcd60e51b815260206004820152602660248201527f416464726573733a20696e73756666696369656e742062616c616e636520666f6044820152651c8818d85b1b60d21b60648201526084016102e5565b600080866001600160a01b0316858760405161150091906118e0565b60006040518083038185875af1925050503d806000811461153d576040519150601f19603f3d011682016040523d82523d6000602084013e611542565b606091505b50915091506115538783838761155e565b979650505050505050565b606083156115cd5782516000036115c6576001600160a01b0385163b6115c65760405162461bcd60e51b815260206004820152601d60248201527f416464726573733a2063616c6c20746f206e6f6e2d636f6e747261637400000060448201526064016102e5565b508161147b565b61147b83838151156115e25781518083602001fd5b8060405162461bcd60e51b81526004016102e591906116d6565b80356001600160a01b038116811461161357600080fd5b919050565b60006020828403121561162a57600080fd5b611633826115fc565b9392505050565b6000806040838503121561164d57600080fd5b611656836115fc565b9150611664602084016115fc565b90509250929050565b60006020828403121561167f57600080fd5b5035919050565b60005b838110156116a1578181015183820152602001611689565b50506000910152565b600081518084526116c2816020860160208601611686565b601f01601f19169290920160200192915050565b60208152600061163360208301846116aa565b600080604083850312156116fc57600080fd5b611705836115fc565b946020939093013593505050565b60006020828403121561172557600080fd5b5051919050565b60006020828403121561173e57600080fd5b8151801515811461163357600080fd5b634e487b7160e01b600052601160045260246000fd5b808202811582820484141761177b5761177b61174e565b92915050565b60008261179e57634e487b7160e01b600052601260045260246000fd5b500490565b8082018082111561177b5761177b61174e565b600181811c908216806117ca57607f821691505b6020821081036117ea57634e487b7160e01b600052602260045260246000fd5b50919050565b634e487b7160e01b600052603260045260246000fd5b6000604067ffffffffffffffff8516835260208181850152845160a08386015261183360e08601826116aa565b905081860151603f198087840301606088015261185083836116aa565b88860151888203830160808a01528051808352908601945060009350908501905b808410156118a357845180516001600160a01b0316835286015186830152938501936001939093019290860190611871565b5060608901516001600160a01b031660a08901526080890151888203830160c08a015295506118d281876116aa565b9a9950505050505050505050565b600082516118f2818460208701611686565b919091019291505056fea2646970667358221220a05d1ca5e00a1dfd88fb8c42b63fa34326c79792842f1e74070227c4d6bf159664736f6c63430008130033",
  "devdoc": {
    "kind": "dev",
    "methods": {},
    "version": 1
  },
  "userdoc": {
    "kind": "user",
    "methods": {},
    "version": 1
  },
  "storageLayout": {
    "storage": [
      {
        "astId": 848,
        "contract": "contracts/TransferUSDCBasic.sol:TransferUSDCBasic",
        "label": "GRETTING",
        "offset": 0,
        "slot": "0",
        "type": "t_string_storage"
      },
      {
        "astId": 862,
        "contract": "contracts/TransferUSDCBasic.sol:TransferUSDCBasic",
        "label": "owner",
        "offset": 0,
        "slot": "1",
        "type": "t_address"
      },
      {
        "astId": 864,
        "contract": "contracts/TransferUSDCBasic.sol:TransferUSDCBasic",
        "label": "beneficiary",
        "offset": 0,
        "slot": "2",
        "type": "t_address"
      },
      {
        "astId": 866,
        "contract": "contracts/TransferUSDCBasic.sol:TransferUSDCBasic",
        "label": "heir",
        "offset": 0,
        "slot": "3",
        "type": "t_address"
      },
      {
        "astId": 868,
        "contract": "contracts/TransferUSDCBasic.sol:TransferUSDCBasic",
        "label": "poolBalance",
        "offset": 0,
        "slot": "4",
        "type": "t_uint256"
      },
      {
        "astId": 870,
        "contract": "contracts/TransferUSDCBasic.sol:TransferUSDCBasic",
        "label": "stakingBalance",
        "offset": 0,
        "slot": "5",
        "type": "t_uint256"
      },
      {
        "astId": 872,
        "contract": "contracts/TransferUSDCBasic.sol:TransferUSDCBasic",
        "label": "investmentBalance",
        "offset": 0,
        "slot": "6",
        "type": "t_uint256"
      },
      {
        "astId": 874,
        "contract": "contracts/TransferUSDCBasic.sol:TransferUSDCBasic",
        "label": "lendingBalance",
        "offset": 0,
        "slot": "7",
        "type": "t_uint256"
      }
    ],
    "types": {
      "t_address": {
        "encoding": "inplace",
        "label": "address",
        "numberOfBytes": "20"
      },
      "t_string_storage": {
        "encoding": "bytes",
        "label": "string",
        "numberOfBytes": "32"
      },
      "t_uint256": {
        "encoding": "inplace",
        "label": "uint256",
        "numberOfBytes": "32"
      }
    }
  }
}